:020000040800F2
:10000000100400209D010008930D00080F0D00084A
:10001000910D0008E5010008890E000800000000AD
:10002000000000000000000000000000B70D000804
:10003000E701000800000000B50D0008B90D000838
:10004000B7010008B7010008B7010008B7010008B0
:10005000B7010008B7010008E9010008B70100086E
:10006000B7010008B7010008B7010008B701000890
:10007000B7010008B7010008B7010008B701000880
:10008000B7010008B7010008B7010008B701000870
:10009000B7010008B7010008B7010008B701000860
:1000A000B7010008B7010008B7010008B701000850
:1000B000B7010008B7010008B7010008B701000840
:1000C000B7010008B7010008B7010008B701000830
:1000D000B7010008B7010008B7010008B701000820
:1000E000B7010008B7010008B7010008B701000810
:1000F000B7010008B7010008B7010008B701000800
:10010000000000000000000000000000B70100082F
:10011000B7010008B7010008B7010008B7010008DF
:10012000B7010008B7010008B7010008B7010008CF
:10013000B7010008B701000800000000000000003F
:10014000B7010008B7010008B7010008000000006F
:10015000000000000000000000000000000000009F
:100160000000000000000000B7010008B70100080F
:10017000B7010008000000000000000000000000BF
:1001800000000000B7010008DFF80CD000F018F8FC
:1001900000480047A90E00081004002006488047C8
:1001A00006480047FEE7FEE7FEE7FEE7FEE7FEE75C
:1001B000FEE7FEE7FEE7FEE7210E000889010008E2
:1001C000064C074D06E0E06840F0010394E80700A4
:1001D00098471034AC42F6D3FFF7DAFF201100083D
:1001E00040110008FEE77047024900200870012016
:1001F00000F012B80800002031B500F0E7F8009CCC
:100200000546601C00D0641C00F0E0F8401BA042D2
:10021000FAD338BD70470000044910B50A6802429D
:1002200002D00860FFF7F6FF10BD00001404014083
:100230002DE9F84FDFF864B100234FF0010C4FF0C7
:10024000030A4FF00F090BF1040EA0E00CFA03F6BD
:10025000324072D04C68022C01D0122C0ED1DC0836
:1002600000EB8408D8F820405D07EF0E09FA07F587
:10027000AC430D69BD402543C8F8205007685D00B8
:1002800091F804800AFA05F408F00308A74308FA75
:1002900005F848EA0708C0F800804F68012F05D02C
:1002A000022F03D0112F01D0122F11D18768D1F85E
:1002B0000C80A74308FA05F848EA0708C0F8088048
:1002C0004768B7430E79C6F300169E403E4346602A
:1002D000C668A6438C68AC403443C4604C68E400F4
:1002E00054D52F4CA56945F00105A561A46923F0FB
:1002F000030504F0010400942A4C2E19B4689D07EC
:100300002F0F09FA07F5AC43B0F1904F04D0264DFA
:10031000A84203D1012512E0002510E0234DA84298
:1003200001D102250BE0224DA84201D1032506E0B0
:10033000204DA84202D1042501E027E00525BD405B
:100340002543B560DBF800405D464E689443F603F4
:1003500000D514432C60DEF8004075464E68944387
:10036000B60300D514432C600C4D08352C684E683C
:100370009443F60200D514432C60084D0C352C68CC
:100380004E689443B60200D514432C605B1C0A6887
:1003900032FA03F47FF45AAFBDE8F88F000401404D
:1003A000001002400000014000040048000800481E
:1003B000000C00480010004842694A404261704702
:1003C0000AB181617047816270470000014800688E
:1003D000704700000400002002480168491C0160C9
:1003E0007047000004000020074810B5016841F084
:1003F00010010160032000F081F8002000F006F8F1
:1004000000F018F8002010BD0020024010B504468E
:1004100007484FF47A710068B0FBF1F000F05FFC20
:1004200000222146501E00F049F8002010BD0000B7
:10043000000000201A4808B5816941F0010181617E
:10044000806900F001000090032000F057F80022BE
:1004500011466FF00B0000F031F8002211466FF0EA
:100460000A0000F02BF8002211466FF0090000F09E
:1004700025F800221146501F00F020F800221146F6
:10048000101F00F01BF800221146901E00F016F815
:100490000022BDE808401146501E00F00FB80000D1
:1004A0000010024000F01F0201219140400980002D
:1004B00000F1E020C0F8001170470000F0B40E4BCE
:1004C0001B680C46C3F30223C3F10705042D00D9B2
:1004D0000425191D072901D2002300E0DB1E012697
:1004E00006FA05F1491E214099409E40761E1640AD
:1004F0003143F0BC00F04EBC0CED00E0064900F0CA
:10050000070208684FF6FF03184040EA0220034A3A
:1005100010430860704700000CED00E00000FA0591
:100520002DE9F047DFF8708105460E46D8F8000047
:1005300000F00700B0420CD2D8F8001021F00701FB
:100540003143C8F80010D8F8000000F00700B042AE
:1005500077D12878514C800705D56068A96820F0CC
:10056000F000084360602878C00759D0696801200E
:1005700001290DD0022929D05FF0020393FAA3F2DA
:10058000B2FA82F242F02002520904D0226803E05B
:100590004FF40033F2E7626A93FAA3F3B3FA83F3FA
:1005A00003F01F03984002424BD0606820F0030024
:1005B00008436060FFF70AFF6968074641F2883028
:1005C00001290DD00229814617D025E04FF0007394
:1005D000D4E700BFFFF7FAFEC11B494501D918E077
:1005E00081466068C0F381000128F3D118E000BFA4
:1005F000FFF7ECFEC11B49450BD86068C0F38100D2
:100600000228F5D10CE000BFFFF7E0FEC11B494511
:1006100002D90320BDE8F087606810F00C0FF3D119
:10062000D8F80010404601F00701B1420BD901682B
:1006300021F0070131430160006800F00700B0427B
:1006400001D00120E6E72878400705D56068E96811
:1006500020F4E060084360602878000706D56068F1
:10066000296920F4605040EAC100606000F022F87F
:100670006168F02292FAA2F201F0F001B2FA82F27D
:10068000D140074A515CC840064908600020FFF786
:10069000BDFE0020BEE70000002002400010024026
:1006A000F0100008000000200148006870470000BA
:1006B00000000020144B10B55A68144802F00C01D9
:1006C00004291DD008291BD14FF4701494FAA4F406
:1006D00002F47011B4FA84F4E1400D4CDB6A615C01
:1006E0000F2494FAA4F403F00F03B4FA84F4E34063
:1006F000074C1034D203E35C03D5B0FBF3F048435E
:1007000010BD0448484310BD0010024000127A009A
:100710000011000800093D002DE9F84F054600785A
:10072000F74EC0074FF0010425D070686704C0F38E
:100730008100012807D07068C0F3810002281BD116
:100740007068C00318D597FAA7F0B0FA80F040F0AF
:100750002000400901D0306800E0706A97FAA7F1E4
:10076000B1FA81F101F01F0104FA01F1084264D0ED
:10077000686800287DD060E06868B0F5803F0BD0E5
:1007800010B1B0F5A02F17D0306820F48030306061
:10079000306820F4802002E0306840F4803030601F
:1007A000F06AA96820F00F000843F062686828B377
:1007B000FFF70CFE80460BE0306840F4802030608C
:1007C000EAE700BFFFF702FEA0EB0800642871D83B
:1007D00097FAA7F0B0FA80F040F02000400901D06D
:1007E000306800E0706A97FAA7F1B1FA81F101F080
:1007F0001F0104FA01F10842E4D01EE0FFF7E6FD14
:10080000804605E0FFF7E2FDA0EB08006428DED893
:1008100097FAA7F0B0FA80F040F02000400901D02C
:10082000306800E0706A97FAA7F1B1FA81F101F03F
:100830001F0104FA01F10842E4D12878DFF8C482EC
:1008400080074FF0000A4FF0020732D570684FF072
:10085000F80B10F00C0F07D07068C0F3810002286D
:1008600029D17068C00326D497FAA7F0B0FA80F0B7
:1008700000E08BE040F02000400901D0306800E04B
:10088000706A97FAA7F1B1FA81F101F01F0104FA39
:1008900001F1084202D02869012877D130689BFA1B
:1008A000ABF26969B2FA82F220F0F8009140084395
:1008B00030605AE064E1286988B394FAA4F0B0FA91
:1008C00080F048F82040FFF781FD814606E000BF38
:1008D000FFF77CFDA0EB0900022898D897FAA7F053
:1008E000B0FA80F040F02000400901D0306800E00C
:1008F000706A97FAA7F1B1FA81F101F01F0104FAC9
:1009000001F10842E4D030689BFAABF220F0F80124
:100910006869B2FA82F290400143316025E0FFE756
:1009200094FAA4F1B1FA81F148F821A0FFF74EFD45
:10093000814605E0FFF74AFDA0EB09000228CCD86C
:1009400097FAA7F0B0FA80F040F02000400901D0FB
:10095000306800E0706A97FAA7F1B1FA81F101F00E
:100960001F0104FA01F10842E4D1287800076CD590
:10097000A869A8B394FAA4F0B0FA80F008EB80005C
:10098000C0F88044FFF722FD814607E08AE100BFFE
:10099000FFF71CFDA0EB090002289ED897FAA7F0EC
:1009A000B0FA80F040F06000B4EB501F01D1306825
:1009B0000BE097FAA7F0B0FA80F040F06000B7EBD8
:1009C000501F01D1306A00E0706A97FAA7F1B1FABE
:1009D00081F101F01F0104FA01F21042D8D034E095
:1009E000FFE794FAA4F1B1FA81F108EB8101C1F8B3
:1009F00080A4FFF7EBFC814606E000BFFFF7E6FCB2
:100A0000A0EB090002289AD897FAA7F0B0FA80F074
:100A100040F06000B4EB501F01D130680BE097FA52
:100A2000A7F0B0FA80F040F06000B7EB501F01D1A2
:100A3000306A00E0706A97FAA7F1B1FA81F101F02B
:100A40001F0104FA01F21042D8D12878400774D56A
:100A5000F0694FF00009C00009D4F06940F08050FF
:100A6000F061F0694FF0010900F0805000902648D5
:100A70000168C90512D4016841F480710160FFF773
:100A8000A5FC834606E000BFFFF7A0FCA0EB0B002F
:100A9000642875D81C480068C005F5D5E8680128A9
:100AA0000AD008B1052811D0306A20F00100306268
:100AB000306A20F0040002E0306A40F00100306249
:100AC000E868E0B1FFF782FC83460DE0306A40F051
:100AD00004003062F0E700BFFFF778FCA0EB0B01E9
:100AE00041F2883081424BD897FAA7F0B0FA80F0F3
:100AF00040F04000B4EB501F08D1306812E01DE018
:100B000000100240000042420070004097FAA7F037
:100B1000B0FA80F040F04000B7EB501F01D1306ACE
:100B200000E0706A97FAA7F1B1FA81F101F01F01B4
:100B300004FA01F21042CFD02EE034E0FFF746FC79
:100B4000834607E0FFF742FCA0EB0B0141F288303F
:100B5000814215D897FAA7F0B0FA80F040F0400033
:100B6000B4EB501F01D130680CE097FAA7F0B0FA4F
:100B700080F040F04000B7EB501F02D1306A01E036
:100B800083E0706A97FAA7F1B1FA81F101F01F01D1
:100B900004FA01F21042D5D1B9F1000F03D0F06987
:100BA00020F08050F061E86980B37168C1F3810181
:100BB000022977D04FF080714F00022809D091FAB6
:100BC000A1F0B0FA80F048F820A0FFF7FFFB05463F
:100BD0005EE0894691FAA1F15046B1FA81F1C24630
:100BE00048F82100FFF7F2FB804605E0FFF7EEFB37
:100BF000A0EB0800022848D897FAA7F0B0FA80F0D6
:100C000040F02000400902D0306801E056E0706AF0
:100C100097FAA7F1B1FA81F101F01F0104FA01F18D
:100C20000842E3D1D5E908100843716821F4741132
:100C30000843706099FAA9F0B0FA80F04AF82040B1
:100C4000FFF7C4FB054604E0FFF7C0FB401B02288A
:100C50001BD897FAA7F0B0FA80F040F020004009C6
:100C600001D0306800E0706A97FAA7F1B1FA81F11B
:100C700001F01F0104FA01F10842E5D01EE000BFB7
:100C8000FFF7A4FB401B022802D90320BDE8F88F20
:100C900097FAA7F0B0FA80F040F02000400902D0A7
:100CA000306801E00CE0706A97FAA7F1B1FA81F1BF
:100CB00001F01F0104FA01F10842E1D10020E5E74B
:100CC0000120E3E74FF0E0210428086903D020F079
:100CD00004000861704740F00400FAE7704710B55F
:100CE000401EB0F1807F01D3012010BD4FF0E02401
:100CF00060610F21601700F04DF80020A06107200F
:100D00002061002010BD10B5FFF7E8FF10BDFEE721
:100D100070B51C4886B0416941F4003141614169B8
:100D200001F400310591416941F4001141614069CC
:100D3000154E00F400104FF47F450590002229461F
:100D40003046FFF73DFB11480124CDE90040022069
:100D5000029069464FF09040FFF76AFA0021009533
:100D6000CDE90141039169463046FFF761FA00225F
:100D700011460620FFF7A2FB0620FFF793FB06B003
:100D800070BD00000010024000100048000011106B
:100D9000FEE770470907090E002806DA00F00F0089
:100DA00000F1E02080F8141D704700F1E02080F889
:100DB000001470477047704710B5FFF70DFBBDE892
:100DC0001040FFF7A0BF10B590B0022000900120A6
:100DD000049010200024059007946846FFF79CFCBF
:100DE00000B1FEE70F20CDE90A040C940D94002118
:100DF0000AA80E94FFF794FB00B1FEE7FFF754FC3E
:100E00004FF47A71B0FBF1F0FFF769FF0420FFF7B0
:100E100059FF00221146501EFFF750FB10B010BDC5
:100E20001448016841F4700101601348016841F001
:100E3000010101604168114A114041600168104A96
:100E400011400160016821F480210160416821F4B2
:100E5000FE014160C16A21F00F01C162016B094AC4
:100E600011400163002181600249C003803908609C
:100E70007047000088ED00E0001002400CC07FF8D1
:100E8000FFFFF6FECCFC00FFFEE702E008C8121FE1
:100E900008C1002AFAD170477047002001E001C163
:100EA000121F002AFBD17047FFF79EFAFFF78BFF56
:100EB000FFF72EFF8C4C20780028FCD101228B4EAE
:100EC000150229463046FFF77BFA6420FFF794F9B4
:100ED0000122570239463046FFF772FA6420FFF7C5
:100EE0008BF94FF48068012241463046FFF768FADB
:100EF0006420FFF781F94FF400690122494630462A
:100F0000FFF75EFA6420FFF777F94FF4805A012269
:100F100051463046FFF754FA6420FFF76DF94FF45D
:100F2000005B012259463046FFF74AFA6420FFF77A
:100F300063F9012291033046FFF742FA6420FFF77C
:100F40005BF90122D1033046FFF73AFA6420FFF73C
:100F500053F9002229463046FFF732FA6420FFF7A2
:100F60004BF9002239463046FFF72AFA6420FFF792
:100F700043F9002241463046FFF722FA6420FFF78A
:100F80003BF9002249463046FFF71AFA6420FFF782
:100F900033F9002251463046FFF712FA6420FFF77A
:100FA0002BF9002259463046FFF70AFA6420FFF772
:100FB00023F90022A9013046FFF702FA6420FFF767
:100FC0001BF90022E9013046FFF7FAF94FF4FA70F5
:100FD000FFF712F94FF47F413046FFF7EDF94FF478
:100FE000FA70FFF709F94FF47F413046FFF7E4F953
:100FF0004FF4FA70FFF700F94FF47F413046FFF7E6
:10100000DBF94FF4FA70FFF7F7F84FF47F41304601
:10101000FFF7D2F96420FFF7EFF80122D103304641
:10102000FFF7CEF96420FFF7E7F80122910330467D
:10103000FFF7C6F96420FFF7DFF801225946304672
:10104000FFF7BEF96420FFF7D7F80122514630467A
:10105000FFF7B6F96420FFF7CFF801224946304682
:10106000FFF7AEF96420FFF7C7F80122414630468A
:10107000FFF7A6F96420FFF7BFF801223946304692
:10108000FFF79EF96420FFF7B7F8012229463046A2
:10109000FFF796F96420FFF7AFF84FF47F41304631
:1010A000FFF78AF94FF4FA70FFF7A6F84FF47F4183
:1010B0003046FFF781F94FF4FA70FFF79DF84FF4CF
:1010C0007F413046FFF778F94FF4FA70FFF794F854
:1010D0004FF47F413046FFF76FF96420FFF78CF83B
:1010E00001202070E7E60000080000200010004802
:1010F00000000000000000000102030406070809C8
:1011000002030405060708090A0B0C0D0E0F101048
:101110000102030405060708090A0B0C0D0E0F1047
:1011200040110008000000200C0000008A0E00089A
:101130004C1100080C000020040400009A0E000866
:0C11400000127A00000000000100000016
:040000050800018965
:00000001FF
